:020000040000FA
:1000000000C000202504000037040000A9070000FC
:100010003B0400003D0400003F040000000000001D
:10002000000000000000000000000000410400008B
:10003000430400000000000045040000F507000034
:10004000490400004D040000510400005504000064
:10005000590400005D040000610400006504000014
:10006000690400006D0400007104000075040000C4
:10007000790400007D040000810400008504000074
:1000800089040000FD040000FD040000FD040000E0
:10009000FD040000FD040000FD040000FD0400005C
:1000A0008D040000910400009504000099040000F4
:1000B0009D040000A1040000A5040000A9040000A4
:1000C000AD040000B1040000B5040000B904000054
:1000D000BD040000FD040000FD040000FD0400005C
:1000E000FD040000FD040000FD040000FD0400000C
:1000F000FD040000FD040000FD040000FD040000FC
:10010000FD040000E1070000FD040000FD04000004
:10011000FD04000029080000FD040000FD040000AB
:10012000FD040000FD040000FD040000FD040000CB
:10013000FD040000FD040000FD040000FD040000BB
:10014000FD040000FD040000FD040000FD040000AB
:10015000FD040000FD040000C1040000FD040000D7
:10016000FD040000FD040000FD040000B1060000D5
:10017000C9040000CD040000D1040000D504000033
:10018000D9040000FD040000FD040000FD0400008F
:10019000FD040000FD040000FD040000FD0400005B
:1001A000DD040000E1040000FD040000FD04000087
:1001B000FD040000FD040000ED060000E90400005D
:1001C000ED040000F1040000F5040000F904000053
:1001D000FD040000FD040000FD040000FD0400001B
:1001E000FD040000FD040000FD040000FD0400000B
:1001F000FD040000FD040000FD040000FD040000FB
:10020000FD040000FD040000FD040000FD040000EA
:1003F000FD040000FD040000FD040000FFFFFFFFFE
:020000040000FA
:10040000FFFFFFFFFFFFFFFFFFFFFFFFFEFFFFFFFD
:020000040000FA
:10041000DFF80CD000F01AF900480047B5200000C2
:1004200000C0002072B63648364901603648804721
:1004300062B636480047FEE7FEE7FEE7FEE7FEE766
:10044000FEE7FEE7FEE7FEE7314800473148004798
:10045000314800473148004731480047314800479C
:10046000314800473148004731480047314800478C
:10047000314800473148004731480047314800477C
:10048000314800473148004731480047314800476C
:10049000314800473148004731480047314800475C
:1004A000314800473148004731480047314800474C
:1004B000314800473148004731480047314800473C
:1004C0003148004731480047304800472F4800472F
:1004D0002E4800472D4800472C4800472C4800472D
:1004E0002C4800472C4800472B4800472A48004723
:1004F000294800472848004727480047FEE70000F2
:1005000008ED00E0000000000108000011040000F8
:10051000FD040000FD040000FD040000FD040000D7
:10052000FD040000FD040000FD040000FD040000C7
:10053000FD040000FD040000FD040000FD040000B7
:10054000FD040000FD040000FD040000FD040000A7
:10055000FD040000FD040000FD040000FD04000097
:10056000FD040000FD040000FD040000FD04000087
:10057000FD040000FD040000FD040000FD04000077
:10058000FD040000FD040000FD040000FD04000067
:10059000FD040000FD040000FD0400000000000058
:1005A000000000000000000000000000000000004B
:1005B000000000000000000000000000000000003B
:1005C0000000000040EA01039B0703D009E008C9CE
:1005D000121F08C0042AFAD203E011F8013B00F808
:1005E000013B521EF9D270472DE9F05F054600200D
:1005F00092469B4688460646814640241BE0284694
:1006000041464746224600F042F853465A46C01A31
:10061000914110D311461846224600F029F82D1AB0
:1006200067EB01084F4622460120002100F020F828
:1006300017EB00094E41201EA4F10104DFDC4846FF
:1006400031462A464346BDE8F09F0000064C074D60
:1006500006E0E06840F0010394E807009847103492
:10066000AC42F6D3FFF7D8FEC4240000E424000017
:10067000202A04DB203A00FA02F100207047914062
:10068000C2F1200320FA03F3194390407047202A57
:1006900004DB203A21FA02F00021704721FA02F32C
:1006A000D040C2F120029140084319467047000033
:1006B0002DE9F0410B48056B00240B4F01268046C5
:1006C00006FA04F0284204D03A1D2146404600F0C4
:1006D0002BF8641C022CF3D3C8F830507E70BDE8B0
:1006E000F0810000004002408C0000202DE9F04124
:1006F0000B48056B00240B4F0126804606FA04F0D8
:10070000284204D03A1D2146404600F00DF8641CF2
:10071000022CF3D3C8F830507E70BDE8F0810000A1
:1007200000500240A400002010B500EB0111D1F8E8
:1007300080301B0EDB0701D0002010BDD1F88030C7
:10074000C3F303439371D1F88030C3F34053137163
:10075000D1F88040002BC4F300545471D1F8843098
:1007600002D0C3F3110301E0C3F38A43136051F8CD
:10077000803F13828B681B0ED3718B681B0C137226
:100780008B681B0A53728B689372CB681B0ED372F3
:10079000CB681B0C1373CB681B0A5373C968917326
:1007A0008068012010BD000001A001F089F8FEE77B
:1007B00073797374656D20486172644661756C74F9
:1007C00020210D0A0000000000F01F0201219140CD
:1007D0004009800000F1E020C0F8001170470000DF
:1007E00003480121C0F81C11D0F81801704700001F
:1007F0000070034001490120087070470800002084
:100800000748016841F47001016006484CF220512C
:10081000C1814DF62811C1814FF4E9710180704703
:1008200088ED00E0002005402DE9F041404E96F8AB
:10083000800096F8905086F8800096F88440044036
:10084000E00708D000F040FF01F080FD3948016862
:1008500009B108468047E00606D500F0CFFF3648CC
:10086000016809B108468047A00606D500F092FF4E
:100870003248016809B108468047600704D530480E
:10088000016809B108468047022C09D12D49086842
:1008900018B196F8880009688847FF2086F8880014
:1008A000200742D52C09C5F3C000C5F38001264EB0
:1008B000264D09D1002202EB40020A4416F83220EC
:1008C000C2F383020D2A0AD0A20002EB40004718AF
:1008D00016F83700C0F38300012813D017E01C4836
:1008E000016821F002010160307E20F08000307646
:1008F000307C20F0800030742868002815D0014634
:1009000002200FE055F8241009B10420884716F89A
:100910003700C0F38300092807D155F824100029B7
:1009200003D00820BDE8F0410847BDE8F081000091
:1009300000200740A0230000A4230000A8230000FB
:10094000AC230000B023000000020020B42300000C
:100950001800002000207047002070472DE9F0416A
:10096000194F0C460646D7E90401401A17490A8870
:10097000101A002802DC0020BDE8F081844200DD6E
:100980000446D7E906020025904210D3104B09888F
:10099000021919448A420AD30D1A98462A4631464A
:1009A000FFF710FE2E44641B4046C7F8188034B190
:1009B00022463146FFF706FEB8692044B86139691E
:1009C000601901443961D7E7240000209A23000010
:1009D000C007002010B5054C6068002805D1012033
:1009E000606000F005F80020606010BD2400002069
:1009F0002DE9F047234DA86800283CD0D5E9040133
:100A0000421AE8684FF0000652EA000135D01E494C
:100A10001E4FDFF87C800988DFF878907C18294623
:100A2000C9696AB1A869814203D38818A04200D37A
:100A3000621A99F8003038F81300904200DA024642
:100A40001548EE60007840F0800000F0E3FEE969B0
:100A50000144E9616A698C4202446A6100D1EF6134
:100A6000296991420BD199F8002038F8121081427F
:100A700005D10120E860BDE8F087AE60FBE7EE60DD
:100A8000F9E70000240000209A230000C00700209E
:100A90009C230000670000209723000010B50B4C3A
:100AA000206A18B1A06A401CA06210BD012020621B
:100AB000606200F00DF8002060622062D4E90C0151
:100AC0008842F2D0401AFFF747FF10BD24000020F3
:100AD00010B5064C0648216B007800F0FFFA81B291
:100AE000206BBDE8104001F00BBC0000240000208A
:100AF0009823000010B50446400702D52046FFF7B2
:100B0000CDFF200704D52046BDE81040FFF762BFA7
:100B100010BD7047002070470020704710B50B488B
:100B200000F01CF8002810D0084A0948116801702C
:100B30000B0A43700B0C8370090EC170117901719F
:100B40005179417191798171012010BD5C000020C3
:100B5000A007002010B500F003F810BD0120704779
:100B60000120704701207047012070470120704725
:100B700010B510480024104944608460C4600461CA
:100B8000C0E90541C0E9071444620C498462C0E928
:100B90000B4141630480FFF7E5FF06484FF416510F
:100BA000383001600471447108218171FFF7DEFF64
:100BB00010BD000024000020C0070020C00C002051
:100BC00010B5FFF7D5FF10BD70B5174C00250126F5
:100BD000206A50B9D4E90C01884206D113498842F1
:100BE00003D02163E56225626163A06A70B1206A67
:100BF00060B9E06A50B92662FFF76AFF2562D4E95E
:100C00000C01884202D0401AFFF7A6FED4E9010188
:100C1000084308D1D4E90401884204D06660A66084
:100C2000FFF7E6FE656070BD24000020C00C0020C8
:100C3000012070470020704700207047024910B51E
:100C40000880FFF791FF10BD24000020084810B570
:100C5000C178026861F31F6206490A6002790A716D
:100C600042794A71807988710846FFF77FFF10BD8D
:100C7000A00700205C00002001078A0E04491144EF
:100C800011F8C02F22F002020A7000F04DBD0000E2
:100C900000200740014680788988020601D4024A74
:100CA000115400F041BD00001C00002070470000FE
:100CB0000A49002811F8940F06D040F0010008708E
:100CC000102081F87400704720F0010001F8740BC7
:100CD000087820F0100008707047000000200740DE
:100CE00010B50B4C0B48A28801788A4200D9CAB2D1
:100CF0001AB907490020143908718020216800F0D2
:100D000089FD216801442160A188081AA08010BDD6
:100D1000780000209423000010B5064C00202168C4
:100D200000F0DCF9216801442160A188081AA08044
:100D300010BD00007800002070470000094902063D
:100D400007D5000701EB906010F8C01F21F00501E6
:100D500005E001EB800010F8C01F21F009010170CF
:100D600070470000002007400949020607D5000728
:100D700001EB906010F8C01F41F0050105E001EBA8
:100D8000800010F8C01F41F0090101707047000099
:100D9000002007402DE9F047634D044680074FF0DF
:100DA0000009A5F10806A5F11C0776D500F014FD91
:100DB0002878C009FFF7C0FFE888B0802878C0F322
:100DC000411111B101295CD14DE06978DFF85C81F6
:100DD0000C2956D2DFE801F0060C5512551726559E
:100DE0002930373B00F08AFA2FE0FFF779FF54E013
:100DF000002004E000F0F6FC40462EE0012000F068
:100E0000BBFA78B3F6E710F01F0F3AD1A8780121AA
:100E100040F08000387000F07F0000F0C7FC00F068
:100E2000E1FC3AE000F0B0F90FE010F01F0F28D11C
:100E30003D481B383060D8E700F0EEFA90B100F082
:100E4000D1FC3B4809E000F03DFA58B1CDE700F095
:100E5000A7FB38B100F0C6FC36480168E9B1084686
:100E600080471AE00DE010F01F000AD0012808D1D9
:100E700000F0DCF888B900F0DBF870B900F086F813
:100E800058B92878000603D4E88808B1002000E0AB
:100E9000802000F095FCA6F80490600721D5287802
:100EA00000061CD4B088E0B1FFF736FFB088C0B9A7
:100EB0002878C0F3411161B101290AD110F01F0057
:100EC00007D0012805D100F05FF850B900F034F8E0
:100ED00038B9802000F074FCA6F8049001E000F01E
:100EE00087FC200712D52878000606D5B088397906
:100EF00008430BD0FFF7F4FE08E03878010605D56B
:100F000000F07F003870002100F050FC600602D530
:100F10000020FFF7B1FE200604D5BDE8F047802091
:100F2000FFF7AABEBDE8F08780000020FC23000088
:100F3000F4230000F823000010B51049104A087986
:100F40001278904203D00F4A1278904214D1487818
:100F500020B1022805D020280ED10AE0FFF76AFE52
:100F600002E04888FFF768FE30B100F03BFC01204A
:100F700010BDFFF76BFEF7E7002010BD80000020DA
:100F800095230000962300000020704770B5224989
:100F9000224A08791278904203D0214A127890426E
:100FA00037D11D4849781F4C1F4D408804291FD058
:100FB00007DC79B101290FD002290BD0032928D1F0
:100FC00011E0202906D0212919D022291AD023295D
:100FD0001FD11AE02C6010E0FFF79EFD05E02C60A9
:100FE000FFF77EFE09E0FFF795FD0028F7D110E03E
:100FF000FFF7B0FC0BE000F0F5FB012070BDFFF740
:101000008DFDF2E7FFF71AFE01E0FFF711FE002861
:10101000F1D1002070BD0000800000209523000069
:1010200096230000A00700207800002000207047D1
:10103000002070471F4900B52020087000F016FC02
:10104000002836D01C48416B41F48021416300F0F8
:101050003DF81A4890F80C1141F0800180F80C110D
:1010600090F80C110906FBD41549090A80F89C1068
:101070001349090C80F8B0101149090E80F8B4101A
:10108000FF2180F880100F49096801B104210E4A40
:10109000126802B10222114341F0190180F8841054
:1010A000402180F8001190F80C1141F0400180F8C7
:1010B0000C1100BD1C0000200080044000200740EF
:1010C00000020020AC230000B023000002494FF4CE
:1010D0000010C1F80001704704E000E0F0B5050021
:1010E0004FEA0570DFF890C04FEA90630CEBC30E37
:1010F0004FF00006BEF8020006D11CF83320C2F300
:1011000083020D2A00D101261B4C0022A03404EBDF
:10111000831702E0BC5C8C54521C8242FAD3174AFB
:101120005C08525D154DAEF802202D1F1CF833E00F
:101130002A68CEF3801E22FA04F707F001077745EC
:1011400006D10EB1897949B10121A1404A402A60F6
:101150002968E140C90705D0C82104E022F0010157
:101160002960F5E788210CF83310054911F8942F10
:1011700022F020020A70F0BD000200201C000020B6
:1011800000200740704700007CB54249A1F11C05D2
:101190000878A1F1080410F01F0002D0012876D1D0
:1011A0005EE03C48CB781C383B4AC1781C30082BA9
:1011B00080786CD2DFE803F06B04123F6B6B082C75
:1011C00036482060122049E0107800285ED019B11E
:1011D000334820600A2041E03248FAE712780AB921
:1011E000012954D019B130490091002108E02F495C
:1011F000FAE7009A137813B153881A440092491CF5
:101200008842F6D100980178F1B32060408825E04B
:101210001278CAB319B126490091002108E0254986
:10122000FAE7009A137813B153881A440092491CC4
:101230008842F6D1E6E720490091032816D0002124
:1012400005E0009B1A780AB11A440092491C8842B2
:10125000F7D100980178B9B120600078019005E0DD
:1012600001A9684600F02CF800280FD0A188019849
:10127000814208D9114980B2A0800978491E0842EC
:1012800001D10120287100E001E001207CBD002097
:101290007CBD00008000002091230000002400009D
:1012A000132400001224000058240000142400001D
:1012B0005A240000592400005C24000094230000FC
:1012C000002070470B48017801F01F0101290ED161
:1012D000A0F11C014A7852B100798978884206D27F
:1012E0000549084403490839086001207047002077
:1012F00070470000800000208800002070B51C4866
:101300001B4C0078A4F1080410F01F000AD0184A02
:10131000A4F11403174D59781279012806D0022838
:1013200024D109E01248163820601DE0F1B1987808
:1013300082421BD2002015E002F08F00020605D584
:1013400000F00F064FF48032B24001E001228240EB
:1013500009B900070AD19868104207D0D868104030
:1013600000D0012028802560012070BD002070BDC4
:1013700080000020A007002070B5264B02461946C9
:101380001878498810F01F00A3F11C0604D001282A
:1013900029D0022827D111E0012924D132B101201E
:1013A00000F036FAF08840F0020005E0002000F07E
:1013B0002FFAF08820F00200F08029E0187900F080
:1013C0008F04200605D504F00F004FF480358540CA
:1013D00001E00125A540707828B1200703D0B0684E
:1013E000284200D009B1002070BD2AB1204600F08B
:1013F000E7F9F06828430AE03069284208D120461E
:10140000FFF73AFC2046FFF7BDFEF068A843F06006
:10141000012070BD800000202DE9F05F5A480026B1
:10142000017811F01F0F7DD1574F80781C3FB146D6
:101430004FF0010A4FF4803B002879D053480178DF
:101440003846C07809B901286CD008B1504C68E022
:10145000504C66E06078022804D0042844D0052867
:101460005DD143E048486179807881423AD1787013
:101470002079B87000204849484A02E001F80090FD
:10148000401C13889842F9D30125B8460AFA05F0A2
:10149000D8F80810084202D02846FFF74FFCD8F8C9
:1014A00008100BFA05F0084203D045F08000FFF762
:1014B00045FC6D1C102DE9D34FF00110C8E902095D
:1014C0000120C8F81090FFF7F1FBE0794006B8F86A
:1014D000060002D540F0010001E020F00100A8F86C
:1014E00006001CE060881BE0E67818E0BEB9A07832
:1014F00000F08F05280604D505F00F010BFA01F066
:1015000001E00AFA05F0B96801432046B960FFF727
:10151000C1FB2846FFF728FC284600F005F9207893
:10152000044401E02AE003E02078002892D120E082
:101530004D4687F8019001245E46B9680AFA04F026
:10154000084202D02046FFF7F9FBB96806FA04F01A
:10155000084203D044F08000FFF7F0FB641C102C1D
:10156000EBD34FF00110C7E9020500203D61FFF702
:101570009DFB054879788078884202D00020BDE83C
:10158000F09F0120FBE70000800000209123000075
:10159000582400001424000088000020922300003A
:1015A0002DE9F84F434800273E460078BA4600F040
:1015B0001F00B94601287BD13E491C3948780028D4
:1015C00073D0002000903C4802780846C0780AB9E1
:1015D00001286DD08B4608B1384C62E0384C60E091
:1015E0006078022804D0042809D0052857D118E0D3
:1015F00061799BF80100814251D0608850E02D480C
:10160000A778E67801794FF00009B94247D1807890
:10161000B04244D1012000902A4810F807A0C655D6
:101620003DE024490879B84239D1A07800F08F080C
:101630005FEA086005D508F00F004FF4803585405B
:1016400002E0012505FA08F58878B04215D1DBF8EB
:10165000081020462943CBF80810DBF80C10A943EA
:10166000CBF80C10FFF716FB4046FFF77DFB40461A
:1016700000F05AF849EA050911E056450FD119EA78
:10168000050F0CD1DBF808104046A943CBF8081031
:10169000DBF80C10A943CBF80C10FFF74FFB2078B8
:1016A0000444207800289BD10098BDE8F88FFFE71C
:1016B0000020FAE780000020912300005824000059
:1016C000142400008800002001201449002201EBAE
:1016D000800383F8C020401C1028F8D31048202332
:1016E000438000F1A0034360C8230370027200F539
:1016F00090734361C2610D2081F8C000094B4FF027
:101700005530186011F8940F40F0020001F81409E8
:10171000FF200870087208730A767047002007409F
:101720000002002018000020F0B5174B174C0706E8
:101730001A684FF00106A4F1A00500F00F010ED5C4
:1017400006EB41008640324304EB01201A6000F1B1
:10175000800205EB4111C0304A61C861F0BD47000D
:10176000BE40B2431A60084A8823121D125C05EB82
:10177000411004EB012142804160037042814031FD
:10178000C160C8210172F0BD18000020A002002035
:10179000FFF716BA034810F8841F21F020010170EA
:1017A0007047000000200740FFF70EBA002904D15F
:1017B000024900F07F0081F8980070470020074040
:1017C0000007810E0348084410F8C01F41F00201D1
:1017D000017070470020074001490020FFF77EBCE0
:1017E0008000002000221146802000F013B8000085
:1017F00001490020FFF772BCA0070020034810F841
:10180000841F41F020010170704700000020074054
:101810007047000070B500F00F000223114D03EB7C
:10182000800405EBC4000023428005F1A00000EB1A
:10183000841002E0CE5CC6545B1C9342FAD30A4E7D
:101840006008316821FA00F3DB0701D0882300E04B
:10185000C82305F8343001238340594010463160D5
:1018600070BD00000002002018000020124A506BDA
:1018700040F480205063114890F80C1141F0800131
:1018800080F80C1190F80C110906FBD4516841F452
:1018900040315160516841F48021516090F8441109
:1018A00041F0030180F8441190F8401141F08001AB
:1018B00080F840110120704700800440002007405C
:1018C0000FB4054B10B503A9044A029800F018F8AC
:1018D00010BC5DF814FB0000112000001000002077
:1018E00002E008C8121F08C1002AFAD170477047E9
:1018F000002001E001C1121F002AFBD17047000047
:101900002DE9FF4F8DB09B460F460446002606E0AA
:1019100025280BD05A460F999047641C761C2078D6
:101920000028F5D111B03046BDE8F08F0025A8465B
:101930000122984900E0054314F8013F203B02FAD8
:1019400003F00842F7D120782E2817D114F8010FA0
:1019500045F004052A280ED06FF02F022078A0F160
:10196000300109290AD808EB880102EB410100EB9C
:101970000108641CF2E757F8048B641C20786C287B
:101980000DD004DC4C2812D06A2811D104E0742850
:101990000DD07A280CD10AE045F4001507E06178F3
:1019A00045F48015814202D1641C05F58015641C44
:1019B0002278692A45D008DC002AB3D0582A69D099
:1019C000632A10D0642A08D13BE0702A67D0732ABA
:1019D00013D0752A5CD0782A5CD010465A460F99ED
:1019E0009047761CD3E017F8040B8DF80000002018
:1019F0008DF80100E946012003E057F8049B4FF001
:101A0000FF3069074FF0000501D40AE06D1C454521
:101A10000DDA8542FADB19F805100029F6D106E047
:101A20006D1C8542FCDB19F805100029F8D12E4405
:101A300004E019F8010B5A460F9990476D1EF8D231
:101A4000A5E00A200021CDE90801C5F302500228D3
:101A50000DD001CFC117031E71F100030DDA4FF055
:101A6000000CD0EB0C006CEB01012D2308E0FF1DF6
:101A700027F00707F7E80201EDE72B0504D52B2334
:101A80008DF8283001233BE0EB0739D02023F7E71E
:101A90000A2000E010200021CDE9080107E0102015
:101AA000002145F00405CDE908014FF00808C5F311
:101AB000025002280FD001CF00214FF0000A2B075F
:101AC0001FD5702A0DD0DDE908C38CF0100C5CEA3C
:101AD000030C0CD015E0FF1D27F00707F7E8020103
:101AE000EBE740228DF828204FF0010A0BE050EA86
:101AF000010306D030238DF828308DF829200223E9
:101B00009A46582A04D024A20DF120090B9209E02C
:101B100026A2F9E7DDE90823FEF766FD0B9B9B5C37
:101B200009F8013D50EA0102F4D1ADEB0900203083
:101B30000890680701D44FF001080899884502DD34
:101B4000A8EB010000E000208046002506E00AA87E
:101B50005A46405D0F9990476D1C761C5545F6DB43
:101B600004E030205A460F999047761CB8F10001E6
:101B7000A8F10108F5DC05E019F8010B5A460F99A8
:101B80009047761C0899481E08900029F4DC641CD4
:101B9000C5E60000092801003031323334353637CC
:101BA00038396162636465660000000030313233A9
:101BB0003435363738394142434445460000000049
:101BC00000B587B0FA208DF80000022100208DF8C2
:101BD000041001228DF801008DF803008DF8052016
:101BE0008DF80600FD208DF8070008218DF8021001
:101BF0006846FEF7B3FE07B000BD000030B52849C7
:101C00008BB001200870274807C88DE80700002026
:101C100003900490059000F0CFF8234D234C294603
:101C2000204600F059F86A460021204600F0EEF800
:101C300003AA0121204600F0E9F80021204600F027
:101C4000D5F80121204600F0D1F8204600F032F806
:101C50002946174D284600F03FF86A4600212846DD
:101C600000F0D4F803AA0121284600F0CFF80021A3
:101C7000284600F0BBF80121284600F0B7F82846B6
:101C800000F018F8074914220C3106A8FEF79AFC58
:101C900006AA0321204600F03BF90BB030BD00003E
:101CA0008C0000207023000020A1070000400240AB
:101CB00000500240016821F0A04101600168C901A3
:101CC000FCD401680901FCD4016821F000410160E5
:101CD0000168C902FCD4704710B5426842F4005252
:101CE0004260026822F000420260026842F0007224
:101CF000026002689201FCD4026842F0A0420260D5
:101D00000268D201FCD50022144600EB021343F80E
:101D1000804F5C609C60DC6000EB8203C3F880480D
:101D2000521CD2B2102AF0D384624FF0FF32026309
:101D3000026842F480320260026822F4407202605B
:101D4000026842F400320260026842F4805202608B
:101D500001EB8101490000D101210C4A1268B2FB5C
:101D6000F1F1491EFF2900D9FF2142684FF6F873AF
:101D70001A4042604FF4800242EA016141F4D011FE
:101D8000426841F001011143416010BD0400002090
:101D90000648816B41F400718163811504488164B8
:101DA000C16404494FF440204861704700800440FA
:101DB0000090044000F00F400948816B41F4C0617D
:101DC0008163C16B41F03001C16341150548016376
:101DD000416305494FF4E0608860C86070470000C7
:101DE000008004400090044000A00440826A012367
:101DF0008B401A4382620449884201D14B2000E0A3
:101E00005E20FEF7E1BC00000040024070B50023F8
:101E1000102901D3002070BD5478012C00D1230576
:101E2000157800EB0114012D11D095886FF06046F4
:101E300006EA8545C4F8805043F08063C4F88030DA
:101E400000EB81009268C0F88028012070BD5568C1
:101E500043F40013C5F31105ECE700000B4910B57E
:101E60004878002420B14C700020091D00F010F8C3
:101E7000064918314878002806D04C700120BDE88A
:101E80001040091D00F004B810BD00008C000020B7
:101E900010B58AB0FA228DF8002000228DF80120BA
:101EA0008DF80220032201248DF804208DF80340D0
:101EB0008DF8050008798DF8060048798DF807003F
:101EC00008686B46020E8DF80820020C8DF8092078
:101ED000020A8DF80A208DF80B0088798DF80C0025
:101EE0000D20002206E08C18E4791C54401C521C82
:101EF000C0B2D2B28C799442F5D8FD211954401C5D
:101F0000C1B28DF802101846FEF728FD0AB010BDC8
:101F100010B5046B01238B401C4200D00363D2F840
:101F20000730947A1BBA23F0FF0300EB0110234320
:101F3000C0F88830D2F80B10937B09BA21F0FF016A
:101F40001943C0F88C10D0F8801021F47021C0F82B
:101F50008010D0F8801093794FF4702404EA034382
:101F60001943C0F88010D0F8801021F48011C0F817
:101F70008010117949B1116821F06041C0F88410D6
:101F8000D0F8801041F4C0010AE011886FF060427F
:101F900002EA8141C0F88410D0F8801021F4C00119
:101FA000C0F8801050F8801F21F070610160016856
:101FB00041F040610160012010BD000030B585B0E6
:101FC000092921D3037841788DF8041081788DF8A0
:101FD0000510D0F80310827909BA21F0FF011143EE
:101FE0000091C1798DF8061000216A4604E044187A
:101FF0005518247AEC71491C9DF806408C42F6DC99
:1020000002480321FFF784FF05B030BD00400240C5
:1020100002490A791206FCD5C871704700A0064033
:1020200010B500F09BF8FFF7B3FE00F0F3F84FF4A3
:10203000E131104800F004F900F05AF94FF47A74D5
:10204000204600F04DF80C490968B1FBF4F0401E41
:10205000B0F1807F0AD24FF0E0214861074AF020BA
:1020600082F8140D0020886107200861BDE8104047
:10207000FFF7C4BD00A00640000000200FE000E014
:102080000649074A0868401C0860904205D30020B2
:10209000086004494FF48020C86070471400002095
:1020A000FFFF0F0000F00F400149C86070470000BB
:1020B00000F00F40FFF7B4FF04A0FFF701FC00F0B1
:1020C00095F8FFF7DDFFFFF7C9FEF8E77379737442
:1020D000656D20696E697420646F6E65210D0A005C
:1020E00019499FED1A1A91ED000A4FF47A7148438D
:1020F000F8EE400A81EE200A00EE900A1448B8EE8D
:10210000601AC26BC1EE000ABCEEE00A10EE101AB3
:1021100042F40002C2630F480022C0F81821C0F840
:1021200010110221C0F818110121C0F81C11D0F8BB
:10213000181141F00101C0F81811074B4FF400319C
:10214000C3F800110260704704000020286B6E4E37
:10215000008004400070034004E000E030B51D49F9
:10216000002002220A731C4A4FF0927353648423A6
:102170000B704FF47A74194B0CE0401CA04209DB41
:10218000556B45F48025556393F8445145F002059D
:1021900083F844518D79C5F38105022DEDD1B0202E
:1021A0000870332008715A20487188798006FCD560
:1021B00088794006FCD5282008708879C0F3810012
:1021C0000328FAD10749064808600749401008600B
:1021D00030BD000000400640008004400020074061
:1021E000000E27070000002004000020084908789E
:1021F00000280CD000220A704868401C4860B0F5E6
:10220000FA7F04D34FF400204A60FFF74DBF7047B8
:10221000080000200748816B41F408518163411593
:1022200005484160816005494FF44070086048608E
:1022300070470000008004400090044000D004403B
:1022400070B5254A4FF47A75264B1268234EB2FBBF
:10225000F5F2234C1B68B04203D1626B42F48062FA
:1022600005E0214EB04206D1626B42F40062626327
:10227000B3FBF5F206E01D4B984203D1636B43F4C8
:1022800080536363C37823F00C03C370002383700F
:102290004FF47A7302FB03F40B01B4FBF3F10478FF
:1022A000C1F3042524F01F042C43047041704FF443
:1022B000FA446243B2FBF3F2494202EB4111827AE3
:1022C00001F01F0122F01F0211438172C17841F019
:1022D0000C01C17070BD00000400002000A0064089
:1022E000008004400000002000B0064000C006400E
:1022F00010B500F01FF8BDE81040012000F017B83D
:102300000278FA2A10D1C2784AB1012A0CD1027996
:10231000032A09D1491FC9B2401DFFF74FBE0079FA
:10232000022801D1FFF74CBC7047FEF713BCFEF743
:10233000BFBC0000044910B50020C870FFF7F5FFCE
:10234000BDE81040FEF776BE6400002006484FF05E
:10235000011201780548C180002101704170C0E977
:1023600002210161704700009023000064000020FA
:102370000100000000000000000000002301000038
:102380000100080102030405060708000000000020
:10239000000002002000010404000005400040008D
:1023A000911700000000000000000000A9170000C5
:1023B00000000000950D000000000000000000007B
:1023C000130B0000F50A00000000000000000000F0
:1023D00000000000000000000000000000000000FD
:1023E00000000000000000000000000000000000ED
:1023F00000000000000000000000000000000000DD
:102400001201100102000020042500030001010256
:10241000030100000902430002010080FA090400E0
:102420000001020201040524001001052401030239
:102430000424020605240600010705830310000199
:1024400009040100020A000005070504024000001B
:102450000705840240000000000000000403090496
:102460000A034D004200450044001E034D00420097
:1024700045004400200043004D0053004900530034
:102480002D004400410050001A033000300030009D
:1024900031004100300030003000300030003000AA
:1024A000300010035500530042005F004300440019
:1024B000430012035500530042005F0043004400F4
:1024C00043003100E4240000000000208C000000E4
:1024D000E0180000702500008C000020B40C000003
:1024E000F0180000000000000000000000000000E4
:1024F0000000000000000000000000005555555588
:1025000000000000000000000000000000000000CB
:1025100000000000000000000000000000000000BB
:1025200000000000000000000000000000000000AB
:10253000000000000000000000000000000000009B
:10254000000000000000000000000000000000008B
:10255000000000000000000000000000000000007B
:10256000000000000000000000000000000000006B
:0400000500000411E2
:00000001FF
